:100000000C9434000C9449000C9449000C94490061
:100010000C9449000C9449000C9449000C9449003C
:100020000C9449000C9449000C9449000C9449002C
:100030000C9449000C9449000C9449000C9449001C
:100040000C9449000C9449000C9449000C9449000C
:100050000C9449000C9449000C9449000C944900FC
:100060000C9449000C94490011241FBECFEFD8E036
:10007000DEBFCDBF11E0A0E0B1E0ECE0F2E002C0F5
:1000800005900D92A230B107D9F70E949A000C9406
:1000900004010C9400001092C50080E18093C4001C
:1000A00088E08093C10086E08093C200089590911B
:1000B000C00095FFFCCF8093C6000895CF93DF93D7
:1000C000EC018991811103C0DF91CF9108950E94C5
:1000D0005700F7CF80E480937C0087E880937A0014
:1000E000089590917C008F70907F892B80937C0085
:1000F00080917A00806480937A0080917A0086FDF6
:10010000FCCF80917800909179000895219A82E83F
:10011000809380008AE1809381008FEF90E090933C
:10012000870080938600089590E0909389008093E3
:1001300088000895CDB7DEB72A970FB6F894DEBFD2
:100140000FBECDBF0E946A000E9486000E944B0035
:10015000529884E00E9471008C014AE0BE016F5FFA
:100160007F4F0E94CF00CE0101960E945E0080E08A
:1001700091E00E945E00C8019695879596958795B7
:10018000992790938900809388002FEF83ED90E367
:10019000215080409040E1F700C00000DACFBB273B
:1001A0004A3031F4992322F4BDE2909581959F4F16
:1001B0000C94DB00BB27FB015527AA27880F991F4A
:1001C000AA1FA41710F0A41B83955051B9F7A05D86
:1001D000AA3308F0A95DA193009779F7B111B19303
:1001E0001192CB010C94F400DC01FC01672F71919A
:1001F0007723E1F7329704C07C916D93708362910D
:0C020000AE17BF07C8F30895F894FFCFB5
:02020C000A00E6
:00000001FF
